001PARCEIRO                                          METLIFE                                           2021090800000001                                                                                                                                                                                                                                                                                                                                                                                                                                                                                                                                                                                                                                                                                                                                                                                                                                                                                                                                                                                                                                                                                                                                                                                                                                                                                                                                                                                                                                                                                                                                                                                                                                                                                                                                                                                                                                                                                                                                                         
1001001120210825                                                                             44862228810Ana Carolina Santos                                                                                           F19970726Rua Mario Pernambuco                                                                                0000000123Casa 2         Vila 2                   São Paulo                SP19893747                        0149987645351                                                                                                                                                                                                        11   0000000000000000000000000000000000000000100500000000000020707                             001          012345                                          000000123456789 Rua                                                                                                                                                                        N0                                                                                                                                                                                                                                                                                                                                                                                                                                                                                                                                                                                                                                                                                                                                                                                                                                                                                                                                                                                                                                                  
5000000123456789000001234567892Luis Carlos                                                 1998011210000                                                                                                                                                                                                                                                                                                                                                                                                                                                                                                                                                                                                                                                                                                                                                                                                                                                                                                                                                                                                                                                                                                                                                                                                                                                                                                                                                                                                                                                                                                                                                                                                                                                                                                                                                                                                                                                                                                                                                                        
001PARCEIRO                                          METLIFE                                           2021090800000001                                                                                                                                                                                                                                                                                                                                                                                                                                                                                                                                                                                                                                                                                                                                                                                                                                                                                                                                                                                                                                                                                                                                                                                                                                                                                                                                                                                                                                                                                                                                                                                                                                                                                                                                                                                                                                                                                                                                                         
1001001120210825                                                                             22900197805Walter Moura                                                                                                  M19910123Rua Cantori                                                                                         0000000012apto 112a      Vila Andrade             São Paulo                SP05728020                        0119681808241                                                                                                                                                                                                        11   0000000000000000000000000000000000000000100500000000000020707                             001          012345                                          000000123456781 Rua                                                                                                                                                                        N0                                                                                                                                                                                                                                                                                                                                                                                                                                                                                                                                                                                                                                                                                                                                                                                                                                                                                                                                                                                                                                                  
5000000123456781000001234567892Darla Lino                                                  1987070410000                                                                                                                                                                                                                                                                                                                                                                                                                                                                                                                                                                                                                                                                                                                                                                                                                                                                                                                                                                                                                                                                                                                                                                                                                                                                                                                                                                                                                                                                                                                                                                                                                                                                                                                                                                                                                                                                                                                                                                        
5000000123456781000001234567893Emilly Lino                                                 2014070410000                                                                                                                                                                                                                                                                                                                                                                                                                                                                                                                                                                                                                                                                                                                                                                                                                                                                                                                                                                                                                                                                                                                                                                                                                                                                                                                                                                                                                                                                                                                                                                                                                                                                                                                                                                                                                                                                                                                                                                        
9000000008                                                                                                                                                                                                                                                                                                                                                                                                                                                                                                                                                                                                                                                                                                                                                                                                                                                                                                                                                                                                                                                                                                                                                                                                                                                                                                                                                                                                                                                                                                                                                                                                                                                                                                                                                                                                                                                                                                                                                                                                                                                                      
